:1000000045C0000010C100005EC000005CC00000E0
:100010005AC0000058C0000056C0000054C0000084
:1000200052C0000050C000004EC000004CC0000094
:100030004AC0000048C0000046C0000044C00000A4
:10004000C1C0000040C000003EC000003CC0000035
:100050003AC0000038C0000036C0000034C00000C4
:1000600032C0000030C000002EC000002CC00000D4
:100070002AC0000028C0000026C0000024C00000E4
:1000800022C0000020C000001EC0000011241FBEBE
:10009000CFEFD0E1DEBFCDBF11E0A0E0B1E0E4E7FB
:1000A000F4E000E00BBF02C007900D92AA30B10748
:1000B000D9F721E0AAE0B1E001C01D92A131B20759
:1000C000E1F702D0D5C19CCFCF93DF93CDB7DEB798
:1000D00010920C0110920B0110920A0110920D0166
:1000E0008AE390E02FEFFC0120838BE390E02FEF79
:1000F000FC01208383E590E024E0FC01208382E57D
:1001000090E02EE8FC01208387E590E027E530E0D1
:10011000F90120812160FC01208381E390E021E34B
:1001200030E0F90120812E7FFC01208382E390E002
:1001300022E330E0F90120812160FC0120838AE67E
:1001400090E022E0FC01208389E590E021E0FC01C1
:100150002083789480910D01882359F010920D012D
:1001600010920B0110920A018BE390E02FEFFC013B
:10017000208380910A0190910B01C29758F310924D
:100180000B0110920A0180910C01882F90E08130C0
:10019000910571F0823091051CF4892B39F00EC065
:1001A0008230910539F0039739F008C07BD009C03F
:1001B000A0D007C0C3D005C006D103C010920C0167
:1001C0000000C8CF1F920F9200905F000F92112481
:1001D00000905B000F922F938F939F93EF93FF9369
:1001E000CF93DF93CDB7DEB782E590E02EE8FC0138
:1001F000208380910A0190910B01019690930B014D
:1002000080930A010000DF91CF91FF91EF919F91C0
:100210008F912F910F9000925B000F9000925F00E2
:100220000F901F9018951F920F9200905F000F92F1
:1002300011248F939F93CF93DF93CDB7DEB7809137
:100240000C01882F90E08130910581F0823091057A
:100250001CF4892B39F015C08230910559F00397B1
:1002600069F00FC081E080930C010EC082E08093A2
:100270000C010AC083E080930C0106C010920C01AF
:1002800003C010920C01000081E080930D0100007A
:10029000DF91CF919F918F910F9000925F000F900F
:1002A0001F901895CF93DF93CDB7DEB78BE390E027
:1002B00020910E01422F50E021E030E002C0220FD9
:1002C000331F4A95E2F72095FC01208380910E01AF
:1002D000882F90E0019687709078992324F40197F5
:1002E000886F9F6F019680930E010000DF91CF9180
:1002F0000895CF93DF93CDB7DEB78BE390E02091E5
:100300000001422F50E021E030E002C0220F331FF5
:100310004A95E2F72095FC01208380910001882313
:1003200021F487E08093000105C080910001815095
:10033000809300010000DF91CF910895CF93DF9368
:10034000CDB7DEB78BE390E020910F01422F50E054
:1003500021E030E002C0220F331F4A95E2F72095DA
:10036000FC01208380910101909102010197A1F489
:1003700080910F01873051F48FEF9FEF909302012E
:100380008093010186E080930F0119C080910F01D5
:100390008F5F80930F0113C080910F01882351F468
:1003A00081E090E0909302018093010181E08093CD
:1003B0000F0105C080910F01815080930F01000053
:1003C000DF91CF910895CF93DF9300D000D000D07C
:1003D000CDB7DEB726E0E3E0F1E0CE010196DC0127
:1003E00001900D922A95E1F78BE390E020911001A6
:1003F000222F30E0AE014F5F5F4F240F351FF90110
:100400002081FC01208380911001882F90E00196CB
:10041000AC019A01ABEABAEA1CD09C01369527954B
:1004200036952795C901880F991F820F931F880F52
:10043000991F9A01281B390B822F8093100100000D
:1004400026960FB6F894DEBF0FBECDBFDF91CF91D9
:100450000895A29FB001B39FC001A39F700D811D9D
:100460001124911DB29F700D811D1124911D0895BD
:04047000F894FFCF2E
:0A0474000701007EBDDBE7DBBD00E1
:00000001FF
